:02000000FE2BD5
:10050C00912AB72AB72AB72AB72AB72AB72AB72AFD
:10051C00B72AB72AB72A83120D08003A0319972A6B
:10052C00B72A0C08003A0319872A013A0319882ABA
:10053C00033A0319892A013A03198A2A073A03193B
:10054C008B2A013A03198C2A033A03198D2A013A92
:10055C0003198E2A0F3A03198F2A013A0319902A8C
:10056C00B72A0800831291018F1FBD2ABE2AC52A03
:10057C008E098F098E0A03198F0A013091008D1F85
:10058C00C82AC92ACE2A8C098D098C0A03198D0A0E
:10059C000C080D040319D32AD42A012B0130900026
:1005AC00E02A013003108C0D8D0DFF3E031DD82A5F
:1005BC00013090078D1FE32AE42AD72A0D080F0279
:1005CC00031DEA2A0C080E02031CED2AEE2AF42A5B
:1005DC000C088E020D08031C8F038F0201300310D0
:1005EC008D0C8C0CFF3E031DF52A01309002031D6F
:1005FC00002B012BE42A11080319052B062B0B2BBE
:10060C008E098F098E0A03198F0A0F088D000E08A8
:10061C008C000800831291018D1F152B162B1D2B9E
:10062C008C098D098C0A03198D0A013091008F1FDA
:10063C00202B212B282B8E098F098E0A03198F0A48
:10064C0001309106920193010C080D0403192F2B14
:10065C00302B652B013090003C2B013003108C0D9E
:10066C008D0DFF3E031D342B013090078D1F3F2B4A
:10067C00402B332B01300310920D930DFF3E031DC5
:10068C00412B0D080F02031D4D2B0C080E02031CF1
:10069C00502B512B582B0C088E020D08031C8F036A
:1006AC008F021214013003108D0C8C0CFF3E031DB5
:1006BC00592B01309002031D642B652B402B110824
:1006CC000319692B6A2B6F2B92099309920A031950
:1006DC00930A13088D0012088C00080083129B01EA
:1006EC009C018312051C7B2B7C2B982B01309B07C8
:1006FC0003189C0A00309C0764301B061C04031D65
:10070C00882B892B982B9B019C010230960004307E
:10071C009500BA309400940B912B950B912B960B62
:10072C00912B00008312851C9C2B9D2BBA2BFF3028
:10073C009B0703189C0AFF309C071B081C04031D15
:10074C00A82BA92BBA2B63309B0000309C000230E5
:10075C00960004309500BA309400940BB32B950B93
:10076C00B32B960BB32B00000A3083128C00003095
:10077C008D001C088F001B088E00102383120D089F
:10078C0098000C0897000A308C0000308D001C0873
:10079C008F001B088E00B82283120D089A000C08DB
:1007AC009900851505111A088D0019088C008622F0
:1007BC0083120C088600073095007D309400940B52
:1007CC00E52B950BE52B83128511051518088D006B
:1007DC0017088C00862283120C08860007309500BF
:1007EC007D309400940BF82B950BF82B772B00286D
:0407FC008301742BD6
:02400E000100AF
:00000001FF
