:10000000FE2B00308A000408840A8207003443343F
:1000100061346C3469347334693479346F347234D4
:10002000003453346F34723475346E347334753431
:040030007A340034EA
:1005CA000030F9220130F9220800831686018F23B0
:1005DA00413083129300EE309200920BF22A930B71
:1005EA00F22A0000E522080083128F0006110F0884
:1005FA0026238312861506308E0030308D008D0B2F
:10060A00042B8E0B042B0000831286110800831220
:10061A00920193011C2B1208110784000120672301
:10062A000130831292070318930A003093071208C5
:10063A00110784000120003A031D242B252B102BBF
:10064A00080083128C000C1C2B2B2C2B2E2B06162D
:10065A002F2B06128C1C322B332B352B8616362B5E
:10066A0086120C1D392B3A2B3C2B06173D2B0613F1
:10067A008C1D402B412B432B8617442B86130800D5
:10068A00EA220530831290000130C3230B30831213
:10069A0091000C230630831290000230C3230130EC
:1006AA00831291000C23103083129800393097007E
:1006BA000D309600960B5F2B970B5F2B980B5F2BD9
:1006CA00662B00288312900010088E000F308E05CA
:1006DA0010088F00F0308F0506150F088D000430C2
:1006EA0003108D0CFF3E031D752B0D082623831264
:1006FA0086150D308D008D0B802B831286110E0806
:10070A002623831286150D308D008D0B8A2B8312BA
:10071A0086110800003026231A3083129100F8301F
:10072A009000900B962B910B962B00000330F92228
:10073A000730831291007D309000900BA22B910B11
:10074A00A22B0330F9220F30831291004730900018
:10075A00900BAD2B910BAD2BB22B0330F92202304B
:10076A00F9220230F9220830F9220030F9220C303D
:10077A00F9220030F9220630F92208008312920089
:10078A001203031DC92BCA2BE12B10087F3E9500CB
:10079A001508910004300310910CFF3E031DD02B65
:1007AA0011089300150894000F3094051308F922D4
:1007BA0083121408F922FD2B02301206031DE62BC0
:1007CA00E72BFD2B1008BF3E950015089100043059
:1007DA000310910CFF3E031DED2B11089300150821
:1007EA0094000F3094051308F92283121408F92291
:0607FA0008008301452BFD
:02400E000100AF
:00000001FF
